:100000000C942A000C9447000C9447000C94470071
:100010000C9447000C9447000C9447000C94470044
:100020000C9447000C9447000C9447000C94470034
:100030000C9447000C9447000C9447000C94470024
:100040000C9447000C9447000C9447000C94470014
:100050000C94470011241FBECFE5D8E0DEBFCDBF12
:1000600010E0A0E6B0E0E0E3F2E002C005900D92FF
:10007000A836B107D9F720E0A8E6B0E001C01D928C
:10008000A936B207E1F70E9449000C9416010C94BE
:10009000000041E061E083E00E94710040E062E026
:1000A00083E00E94710040E064E083E00E94710000
:1000B00087E690E00E94DA0066E080E690E00E9429
:1000C000FD002FEF83ED90E3215080409040E1F759
:1000D00000C000008DE00E94E1008AE00E94E10083
:1000E000EBCF8130F9F030F08230A1F1833009F4A8
:1000F00049C00895413041F018F0423051F0089560
:100100008AB3682B6ABB08958AB3609568236ABB7B
:1001100008958AB3962F909589238ABB8BB3682B59
:100120006BBB0895413041F018F0423051F0089512
:1001300087B3682B67BB089587B36095682367BB57
:10014000089587B3962F9095892387BB88B3682B32
:1001500068BB0895413041F018F0423051F00895E5
:1001600084B3682B64BB089584B36095682364BB33
:10017000089584B3962F9095892384BB85B3682B0B
:1001800065BB0895413041F018F0423051F00895B8
:1001900081B3682B61BB089581B36095682361BB0F
:1001A000089581B3962F9095892381BB82B3682BE4
:1001B00062BB0895549A539A26E820BD89B990BD30
:1001C000089510926800659B17C08CB95E9913C0A2
:1001D000809168008A3078F48F5F809368008FE99F
:1001E0009FE00197F1F700C000005E9904C0809184
:1001F00068008A3088F35E9A08950F931F93CF9317
:10020000DF93EC010FEF060F662359F010E00F5F4C
:100210001F4F080F191F89910E94E100C017D107D5
:10022000D1F7DF91CF911F910F910895F894FFCFEF
:080230004E6F7572616E000053
:00000001FF
