:100000000C942A000C9434000C9434000C943400AA
:100010000C9434000C9434000C9434000C94340090
:100020000C9434000C9434000C9434000C94340080
:100030000C9434000C9434000C9434000C94340070
:100040000C9434000C9434000C9434000C94340060
:100050000C94340011241FBECFE5D8E0DEBFCDBF25
:100060000E945F000C942C010C94000040E061E0C1
:1000700083E00E946F0040E062E083E00E946F0036
:1000800040E064E083E00E946F0041E064E083E0D0
:100090000E94D800089541E061E083E00E94D8000A
:1000A00040E062E083E00E94D800089561E083E0D0
:1000B0000E94140162E083E00E94140108950E94EE
:1000C00036000E944B000E9456002FEF83ED90E314
:1000D000215080409040E1F700C00000F4CF813013
:1000E000F9F030F08230A1F1833009F449C008956D
:1000F000413041F018F0423051F008958AB3682B36
:100100006ABB08958AB3609568236ABB08958AB371
:10011000962F909589238ABB8BB3682B6BBB089570
:10012000413041F018F0423051F0089587B3682B08
:1001300067BB089587B36095682367BB089587B34D
:10014000962F9095892387BB88B3682B68BB089549
:10015000413041F018F0423051F0089584B3682BDB
:1001600064BB089584B36095682364BB089584B329
:10017000962F9095892384BB85B3682B65BB089522
:10018000413041F018F0423051F0089581B3682BAE
:1001900061BB089581B36095682361BB089581B305
:1001A000962F9095892381BB82B3682B62BB0895FB
:1001B000813099F028F08230E9F0833041F10895E0
:1001C000442331F0413079F58BB3682B6BBB089534
:1001D0008BB3609568236BBB0895442331F04130A5
:1001E00011F588B3682B68BB089588B360956823C0
:1001F00068BB0895442331F04130A9F485B3682BDE
:1002000065BB089585B36095682365BB0895442355
:1002100031F0413041F482B3682B62BB089582B360
:100220006095682362BB0895813051F028F08230D8
:1002300059F0833069F008958BB368276BBB08953C
:1002400088B3682768BB089585B3682765BB0895A0
:0C02500082B3682762BB0895F894FFCFCA
:00000001FF
