:100000000C942A000C9434000C9434000C943400AA
:100010000C9434000C9434000C9434000C94340090
:100020000C9434000C9434000C9434000C94340080
:100030000C9434000C9434000C9434000C94340070
:100040000C9434000C9434000C9434000C94340060
:100050000C94340011241FBECFE5D8E0DEBFCDBF25
:100060000E94CB000C94ED010C94000040E061E094
:1000700083E00E942D0140E062E083E00E942D01B8
:1000800040E064E083E00E942D0141E064E083E011
:100090000E949601089540E068E083E00E942D01EF
:1000A00040E060E183E00E942D0140E060E283E0F7
:1000B0000E942D0141E060E283E00E9496010895D4
:1000C00041E061E083E00E94960140E062E083E06D
:1000D0000E949601089541E068E083E00E94960145
:1000E00040E060E183E00E949601089540E061E015
:1000F00083E00E94960141E062E083E00E94960165
:10010000089540E068E083E00E94960141E060E1EC
:1001100083E00E949601089540E064E083E00E943D
:100120009601089540E060E283E00E949601089500
:10013000813019F0823039F0089540E060E483E0C6
:100140000E942D01089540E060E883E00E942D01A7
:100150000895813019F0823039F0089541E060E46B
:1001600083E00E949601089541E060E883E00E94E8
:1001700096010895813019F0823039F0089540E0F9
:1001800060E483E00E949601089540E060E883E027
:100190000E949601089541E060E181E00E942D01F6
:1001A00041E060E281E00E942D0140E060E481E0F6
:1001B0000E942D0141E060E881E00E942D0164E091
:1001C00080E00E94D2010E9436000E944B0081E034
:1001D0000E9498000E94E901813619F40E94600093
:1001E00032C00E94E901823619F40E9476002BC0C9
:1001F0000E94E901833619F40E948C0024C00E94F9
:10020000E901843619F40E946B001DC00E94E901C7
:10021000853619F40E94810016C00E94E9018636D5
:1002200019F40E9492000FC00E94E901873621F460
:1002300081E00E94A90007C00E94E901883619F4F4
:1002400081E00E94BA002FEF83ED90E321508040BF
:100250009040E1F700C00000BDCF8130F9F030F0F0
:100260008230A1F1833009F449C00895413041F052
:1002700018F0423051F008958AB3682B6ABB089594
:100280008AB3609568236ABB08958AB3962F9095C8
:1002900089238ABB8BB3682B6BBB0895413041F037
:1002A00018F0423051F0089587B3682B67BB08956A
:1002B00087B36095682367BB089587B3962F9095A1
:1002C000892387BB88B3682B68BB0895413041F010
:1002D00018F0423051F0089584B3682B64BB089540
:1002E00084B36095682364BB089584B3962F90957A
:1002F000892384BB85B3682B65BB0895413041F0E9
:1003000018F0423051F0089581B3682B61BB089515
:1003100081B36095682361BB089581B3962F909552
:10032000892381BB82B3682B62BB0895813099F029
:1003300028F08230E9F0833041F10895442331F010
:10034000413079F58BB3682B6BBB08958BB3609507
:1003500068236BBB0895442331F0413011F588B315
:10036000682B68BB089588B36095682368BB0895BF
:10037000442331F04130A9F485B3682B65BB08955F
:1003800085B36095682365BB0895442331F04130FF
:1003900041F482B3682B62BB089582B360956823F1
:1003A00062BB089588B341E064E00E942D0188B3E8
:1003B00041E065E00E942D0188B340E066E00E94C4
:1003C0002D0188B341E067E00E942D0180E48DB9E2
:0E03D0000895779BFECF8FB10895F894FFCF6C
:00000001FF
