S01000005350495F546573742E7372656329
S11300000C942A000C9434000C9434000C943400A6
S11300100C9434000C9434000C9434000C9434008C
S11300200C9434000C9434000C9434000C9434007C
S11300300C9434000C9434000C9434000C9434006C
S11300400C9434000C9434000C9434000C9434005C
S11300500C94340011241FBECFE5D8E0DEBFCDBF21
S11300600E949F000C94E2000C9400008130F9F08F
S113007030F08230A1F1833009F449C00895413051
S113008041F018F0423051F008958AB3682B6ABBEE
S113009008958AB3609568236ABB08958AB3962F3E
S11300A0909589238ABB8BB3682B6BBB0895413031
S11300B041F018F0423051F0089587B3682B67BBC4
S11300C0089587B36095682367BB089587B3962F17
S11300D09095892387BB88B3682B68BB089541300A
S11300E041F018F0423051F0089584B3682B64BB9A
S11300F0089584B36095682364BB089584B3962FF0
S11301009095892384BB85B3682B65BB08954130E2
S113011041F018F0423051F0089581B3682B61BB6F
S1130120089581B36095682361BB089581B3962FC8
S11301309095892381BB82B3682B62BB089540E00C
S113014060E181E00E94360040E060E281E00E94CC
S1130150360041E060E481E00E94360040E060E85F
S113016081E00E94360064E080E00E94C4008EE6D4
S11301700E94D1002FEF83ED90E321508040904006
S1130180E1F700C00000F3CF24E0829FC0011124F6
S113019080618DB960FF709A8DB16695682B6DB9D9
S11301A008956E9A8FB977990AC080E197E225E0A5
S11301B02A95F1F70000779902C00197C1F76E986C
S10B01C08FB10895F894FFCFFC
S9030000FC
