:100000000C942A000C943C000C943C000C943C0092
:100010000C943C000C943C000C943C000C943C0070
:100020000C943C000C943C000C943C000C943C0060
:100030000C943C000C943C000C943C000C943C0050
:100040000C943C000C943C000C943C000C943C0040
:100050000C943C0011241FBECFE5D8E0DEBFCDBF1D
:1000600020E0A0E6B0E001C01D92A036B207E1F7A3
:100070000E943E000C9409010C940000CF93DF9382
:100080001F92CDB7DEB7198287E690E00E94FC0090
:1000900064E080E00E94C600CE0101960E94030148
:1000A00089810E94EB002FEF83ED90E32150804087
:1000B0009040E1F700C00000EFCF8130F9F030F060
:1000C0008230A1F1833009F449C00895413041F0F4
:1000D00018F0423051F008958AB3682B6ABB089536
:1000E0008AB3609568236ABB08958AB3962F90956A
:1000F00089238ABB8BB3682B6BBB0895413041F0D9
:1001000018F0423051F0089587B3682B67BB08950B
:1001100087B36095682367BB089587B3962F909542
:10012000892387BB88B3682B68BB0895413041F0B1
:1001300018F0423051F0089584B3682B64BB0895E1
:1001400084B36095682364BB089584B3962F90951B
:10015000892384BB85B3682B65BB0895413041F08A
:1001600018F0423051F0089581B3682B61BB0895B7
:1001700081B36095682361BB089581B3962F9095F4
:10018000892381BB82B3682B62BB0895CF93DF9331
:10019000C82FD62F40E060E181E00E945D0040E082
:1001A00060E281E00E945D0041E060E481E00E9445
:1001B0005D0040E060E881E00E945D00CC0FCC0F64
:1001C000C061CDB9D0FF709A8DB1D695D82BDDB96D
:1001D000DF91CF9108956E9A8FB977990AC080E127
:1001E00097E225E02A95F1F70000779902C0019780
:1001F000C1F76E988FB10895549A539A26E820BD9E
:1002000089B990BD08955F9B03C02CB1FC01208388
:060210000895F894FFCFF1
:00000001FF
