:100000000C942A000C9434000C9434000C943400AA
:100010000C9434000C9434000C9434000C94340090
:100020000C9434000C9434000C9434000C94340080
:100030000C9434000C9434000C9434000C94340070
:100040000C9434000C9434000C9434000C94340060
:100050000C94340011241FBECFE5D8E0DEBFCDBF25
:100060000E94DB000C942F010C9400008130F9F009
:1000700030F08230A1F1833009F449C00895413055
:1000800041F018F0423051F008958AB3682B6ABBF2
:1000900008958AB3609568236ABB08958AB3962F42
:1000A000909589238ABB8BB3682B6BBB0895413035
:1000B00041F018F0423051F0089587B3682B67BBC8
:1000C000089587B36095682367BB089587B3962F1B
:1000D0009095892387BB88B3682B68BB089541300E
:1000E00041F018F0423051F0089584B3682B64BB9E
:1000F000089584B36095682364BB089584B3962FF4
:100100009095892384BB85B3682B65BB08954130E6
:1001100041F018F0423051F0089581B3682B61BB73
:10012000089581B36095682361BB089581B3962FCC
:100130009095892381BB82B3682B62BB089581307F
:1001400099F028F08230E9F0833041F1089544239A
:1001500031F0413079F58BB3682B6BBB08958BB3CD
:10016000609568236BBB0895442331F0413011F54D
:1001700088B3682B68BB089588B36095682368BB13
:100180000895442331F04130A9F485B3682B65BB51
:10019000089585B36095682365BB0895442331F0C5
:1001A000413041F482B3682B62BB089582B36095FD
:1001B000682362BB089541E060E181E00E9436005F
:1001C00041E060E281E00E94360040E060E481E0CE
:1001D0000E94360041E060E881E00E94360040E085
:1001E00064E083E00E94360064E080E00E94110138
:1001F0000E941F01813631F441E064E083E00E94F7
:100200009F0005C040E064E083E00E949F002FEF64
:1002100083ED90E3215080409040E1F700C0000062
:10022000E7CF24E0829FC001112480618DB96C98D2
:1002300060FF709A8DB16695682B6DB908956E9ABE
:1002400077990AC080E197E225E02A95F1F700004E
:10025000779902C00197C1F76E988FB10895F8940D
:02026000FFCFCE
:00000001FF
