:100000000C942A000C9434000C9434000C943400AA
:100010000C9434000C9434000C9434000C94340090
:100020000C9434000C9434000C9434000C94340080
:100030000C9434000C9434000C9434000C94340070
:100040000C9434000C9434000C9434000C94340060
:100050000C94340011241FBECFE5D8E0DEBFCDBF25
:100060000E947E000C943F010C940000813051F0FE
:1000700018F0823069F0089540E064E082E00E9468
:100080009A00089540E060E882E00E949A00089596
:1000900040E068E083E00E949A000895813051F0CA
:1000A00018F0823069F0089541E064E082E00E9437
:1000B0000301089541E060E882E00E940301089591
:1000C00041E068E083E00E9403010895813051F02F
:1000D00018F0823069F0089540E064E082E00E9408
:1000E0000301089540E060E882E00E940301089562
:1000F00040E068E083E00E940301089580E00E94F0
:10010000360080E00E944E002FEF83ED90E32150F7
:1001100080409040E1F700C0000080E00E9466004F
:100120002FEF83ED90E3215080409040E1F700C035
:100130000000E7CF8130F9F030F08230A1F1833058
:1001400009F449C00895413041F018F0423051F0AF
:1001500008958AB3682B6ABB08958AB360956823B3
:100160006ABB08958AB3962F909589238ABB8BB377
:10017000682B6BBB0895413041F018F0423051F0CC
:10018000089587B3682B67BB089587B3609568238C
:1001900067BB089587B3962F9095892387BB88B353
:1001A000682B68BB0895413041F018F0423051F09F
:1001B000089584B3682B64BB089584B36095682365
:1001C00064BB089584B3962F9095892384BB85B32F
:1001D000682B65BB0895413041F018F0423051F072
:1001E000089581B3682B61BB089581B3609568233E
:1001F00061BB089581B3962F9095892381BB82B30B
:10020000682B62BB0895813099F028F08230E9F0C4
:10021000833041F10895442331F0413079F58BB3B7
:10022000682B6BBB08958BB3609568236BBB0895F7
:10023000442331F0413011F588B3682B68BB089531
:1002400088B36095682368BB0895442331F041303A
:10025000A9F485B3682B65BB089585B360956823C1
:1002600065BB0895442331F0413041F482B3682BDB
:1002700062BB089582B36095682362BB0895F894C9
:02028000FFCFAE
:00000001FF
